:020000040800F2
:1000000000800120DD0E0008D1130008D313000882
:10001000D5130008D7130008D9130008000000000A
:10002000000000000000000000000000DB130008DA
:10003000DD13000800000000DF130008E1130008D2
:100040002D0F00082D0F00082D0F00082D0F0008A0
:100050002D0F00082D0F0008E9130008F313000806
:100060002D0F00082D0F00082D0F00082D0F000880
:100070002D0F00082D0F00082D0F00082D0F000870
:100080002D0F00082D0F00082D0F000800000000A4
:10009000000000000000000000000000FD13000848
:1000A0002D0F0008091400082D0F00082D0F00085F
:1000B0002D0F00082D0F00082D0F00082D0F000830
:1000C0002D0F00082D0F00082D0F00082D0F000820
:1000D0002D0F00082D0F0008191400080000000063
:1000E000291400082D0F00082D0F00080000000043
:1000F0000000000000000000000000002D0F0008BC
:10010000000000002D0F00082D0F00082D0F000823
:1001100000000000000000000000000000000000DF
:100120002D0F00082D0F00082D0F00082D0F0008BF
:100130002D0F00080000000000000000000000007B
:100140000000000000000000000000002D0F00086B
:100150002D0F00082D0F00082D0F00082D0F00088F
:100160002D0F00082D0F0008000000000000000007
:10017000000000000000000000000000000000007F
:10018000000000002D0F000800000000000000002B
:040190002D0F000827
:1001A00010B5054C237833B9044B13B10448AFF3B1
:1001B00000800123237010BDFC010020000000001E
:1001C0002473000808B5034B1BB103490348AFF380
:1001D000008008BD00000000000200202473000819
:1001E00010F8012B11F8013B012A28BF9A42F7D0E1
:1001F000D01A7047034613F8012B002AFBD1181AB6
:1002000001387047000000000000000000000000FE
:1002100001F0FF01102A2BDB10F0070F08D010F8B7
:10022000013B013A8B422DD010F0070F42B3F6D1BB
:10023000F0B441EA012141EA014122F007047FF0D4
:1002400000070023F0E80256083C85EA010586EA2B
:10025000010685FA47F5A3FA87F586FA47F6A5FA67
:1002600087F68EB9EED1F0BC01F0FF0102F0070273
:1002700032B110F8013B013A83EA010313B1F8D11E
:100280000020704701387047002D06BF35460338FF
:10029000073815F0010F07D1013015F4807F02BF38
:1002A000013015F4C03F0130F0BC0138704700BF89
:1002B00081F0004102E000BF83F0004330B54FEA17
:1002C00041044FEA430594EA050F08BF90EA020F84
:1002D0001FBF54EA000C55EA020C7FEA645C7FEA17
:1002E000655C00F0E2804FEA5454D4EB5555B8BF3A
:1002F0006D420CDD2C4480EA020281EA030382EAAB
:10030000000083EA010180EA020281EA0303362D3C
:1003100088BF30BD11F0004F4FEA01314FF4801C0F
:100320004CEA113102D0404261EB410113F0004F21
:100330004FEA03334CEA133302D0524263EB4303D8
:1003400094EA050F00F0A780A4F10104D5F1200E76
:100350000DDB02FA0EFC22FA05F2801841F10001D1
:1003600003FA0EF2801843FA05F359410EE0A5F1A5
:1003700020050EF1200E012A03FA0EFC28BF4CF0D6
:10038000020C43FA05F3C01851EBE37101F000458C
:1003900007D54FF0000EDCF1000C7EEB00006EEB99
:1003A0000101B1F5801F1BD3B1F5001F0CD3490823
:1003B0005FEA30004FEA3C0C04F101044FEA44527A
:1003C00012F5800F80F09A80BCF1004F08BF5FEA01
:1003D000500C50F1000041EB045141EA050130BDE1
:1003E0005FEA4C0C404141EB0101013C28BFB1F5F3
:1003F000801FE9D291F0000F04BF01460020B1FA3E
:1004000081F308BF2033A3F10B03B3F120020CDA10
:100410000C3208DD02F1140CC2F10C0201FA0CF0EE
:1004200021FA02F10CE002F11402D8BFC2F1200C53
:1004300001FA02F120FA0CFCDCBF41EA0C01904009
:10044000E41AA2BF01EB0451294330BD6FEA040452
:100450001F3C1CDA0C340EDC04F11404C4F120023D
:1004600020FA04F001FA02F340EA030021FA04F34F
:1004700045EA030130BDC4F10C04C4F1200220FAA6
:1004800002F001FA04F340EA0300294630BD21FAE4
:1004900004F0294630BD94F0000F83F4801306BFAA
:1004A00081F480110134013D4EE77FEA645C18BF9E
:1004B0007FEA655C29D094EA050F08BF90EA020F35
:1004C00005D054EA000C04BF1946104630BD91EA2D
:1004D000030F1EBF0021002030BD5FEA545C05D130
:1004E0004000494128BF41F0004130BD14F580046F
:1004F0003CBF01F5801130BD01F0004545F0FE41E3
:1005000041F470014FF0000030BD7FEA645C1ABF17
:10051000194610467FEA655C1CBF0B46024650EA4E
:10052000013406BF52EA033591EA030F41F400217A
:1005300030BD00BF90F0000F04BF0021704730B500
:100540004FF4806404F132044FF000054FF00001D5
:1005500050E700BF90F0000F04BF0021704730B596
:100560004FF4806404F1320410F0004548BF40426B
:100570004FF000013EE700BF42004FEAE2014FEAC0
:1005800031014FEA02701FBF12F07F4393F07F4F9B
:1005900081F06051704732F07F4208BF704793F09E
:1005A0007F4F04BF41F40021704730B54FF46074B1
:1005B00001F0004521F000411CE700BF50EA0102B4
:1005C00008BF704730B54FF000050AE050EA01025D
:1005D00008BF704730B511F0004502D5404261EBCD
:1005E00041014FF4806404F132045FEA915C3FF40E
:1005F000D8AE4FF003025FEADC0C18BF03325FEAAB
:10060000DC0C18BF033202EBDC02C2F1200300FA5B
:1006100003FC20FA02F001FA03FE40EA0E0021FA80
:1006200002F11444BDE600BF70B54FF0FF0C4CF46E
:10063000E06C1CEA11541DBF1CEA135594EA0C0F20
:1006400095EA0C0F00F0DEF82C4481EA030621EA5B
:100650004C5123EA4C5350EA013518BF52EA033596
:1006600041F4801143F4801338D0A0FB02CE4FF048
:100670000005E1FB02E506F00042E0FB03E54FF078
:100680000006E1FB03569CF0000F18BF4EF0010E70
:10069000A4F1FF04B6F5007F64F5407404D25FEA6C
:1006A0004E0E6D4146EB060642EAC62141EA55511F
:1006B0004FEAC52040EA5E504FEACE2EB4F1FD0C61
:1006C00088BFBCF5E06F1ED8BEF1004F08BF5FEADF
:1006D000500E50F1000041EB045170BD06F0004691
:1006E00046EA010140EA020081EA0301B4EB5C043E
:1006F000C2BFD4EB0C0541EA045170BD41F4801136
:100700004FF0000E013C00F3AB8014F1360FDEBF5A
:10071000002001F0004170BDC4F10004203C35DA36
:100720000C341BDC04F11404C4F1200500FA05F3B9
:1007300020FA04F001FA05F240EA020001F000425A
:1007400021F0004110EBD37021FA04F642EB0601D0
:100750005EEA430E08BF20EAD37070BDC4F10C04FA
:10076000C4F1200500FA04F320FA05F001FA04F2BE
:1007700040EA020001F0004110EBD37041F10001AA
:100780005EEA430E08BF20EAD37070BDC4F12005B5
:1007900000FA05F24EEA020E20FA04F301FA05F21D
:1007A00043EA020321FA04F001F0004121FA04F2C5
:1007B00020EA020000EBD3705EEA430E08BF20EA95
:1007C000D37070BD94F0000F0FD101F000464000CF
:1007D00041EB010111F4801F08BF013CF7D041EA51
:1007E000060195F0000F18BF704703F00046520055
:1007F00043EB030313F4801F08BF013DF7D043EA26
:100800000603704794EA0C0F0CEA135518BF95EADB
:100810000C0F0CD050EA410618BF52EA4306D1D162
:1008200081EA030101F000414FF0000070BD50EA81
:10083000410606BF1046194652EA430619D094EA0B
:100840000C0F02D150EA013613D195EA0C0F05D1F5
:1008500052EA03361CBF104619460AD181EA030149
:1008600001F0004141F0FE4141F470014FF0000001
:1008700070BD41F0FE4141F4780170BD70B54FF09C
:10088000FF0C4CF4E06C1CEA11541DBF1CEA13551C
:1008900094EA0C0F95EA0C0F00F0A7F8A4EB0504FE
:1008A00081EA030E52EA03354FEA013100F08880F5
:1008B0004FEA03334FF0805545EA131343EA1263BE
:1008C0004FEA022245EA111545EA10654FEA002673
:1008D0000EF000419D4208BF964244F1FD0404F52C
:1008E000407402D25B084FEA3202B61A65EB030588
:1008F0005B084FEA32024FF480104FF4002CB6EB45
:10090000020E75EB030E22BFB61A754640EA0C00C4
:100910005B084FEA3202B6EB020E75EB030E22BF04
:10092000B61A754640EA5C005B084FEA3202B6EB45
:10093000020E75EB030E22BFB61A754640EA9C0004
:100940005B084FEA3202B6EB020E75EB030E22BFD4
:10095000B61A754640EADC0055EA060E18D04FEA92
:10096000051545EA16754FEA06164FEAC30343EA32
:1009700052734FEAC2025FEA1C1CC0D111F4801FFF
:100980000BD141EA00014FF000004FF0004CB6E7F8
:1009900011F4801F04BF01430020B4F1FD0C88BF97
:1009A000BCF5E06F3FF6AFAEB5EB030C04BFB6EBA2
:1009B000020C5FEA500C50F1000041EB045170BD95
:1009C0000EF0004E4EEA113114EB5C04C2BFD4EBC2
:1009D0000C0541EA045170BD41F480114FF0000E46
:1009E000013C90E645EA060E8DE60CEA135594EAC2
:1009F0000C0F08BF95EA0C0F3FF43BAF94EA0C0FC5
:100A00000AD150EA01347FF434AF95EA0C0F7FF439
:100A100025AF104619462CE795EA0C0F06D152EA8D
:100A200003353FF4FDAE1046194622E750EA410671
:100A300018BF52EA43067FF4C5AE50EA41047FF482
:100A40000DAF52EA43057FF4EBAE12E74FF0FF3CE7
:100A500006E000BF4FF0010C02E000BF4FF0010CB8
:100A60004DF804CD4FEA410C7FEA6C5C4FEA430C31
:100A700018BF7FEA6C5C1BD001B050EA410C0CBF80
:100A800052EA430C91EA030F02BF90EA020F0020E2
:100A9000704710F1000F91EA030F58BF994208BF49
:100AA00090422CBFD8176FEAE37040F00100704706
:100AB0004FEA410C7FEA6C5C02D150EA013C07D15D
:100AC0004FEA430C7FEA6C5CD6D152EA033CD3D0A8
:100AD0005DF8040B704700BF8446104662468C46A2
:100AE0001946634600E000BF01B5FFF7B7FF0028D5
:100AF00048BF10F1000F01BD4DF808EDFFF7F4FFFE
:100B00000CBF012000205DF808FB00BF4DF808ED88
:100B1000FFF7EAFF34BF012000205DF808FB00BFAB
:100B20004DF808EDFFF7E0FF94BF012000205DF8CD
:100B300008FB00BF4DF808EDFFF7CEFF94BF012082
:100B400000205DF808FB00BF4DF808EDFFF7C4FF7B
:100B500034BF012000205DF808FB00BF4FEA410CC4
:100B60007FEA6C5C02D150EA013C0AD14FEA430CA7
:100B70007FEA6C5C02D152EA033C02D14FF00000E4
:100B800070474FF0010070474FEA410212F5001222
:100B900015D211D56FF47873B3EB625212D94FEAC4
:100BA000C12343F0004343EA505311F0004F23FAAE
:100BB00002F018BF404270474FF00000704750EA03
:100BC000013005D111F0004008BF6FF000407047C0
:100BD0004FF00000704700BF53B94AB9002908BF61
:100BE00000281CBF4FF0FF314FF0FF3000F074B908
:100BF000ADF1080C6DE904CE00F006F8DDF804E074
:100C0000DDE9022304B070472DE9F047089D044652
:100C10008E46002B4DD18A42944669D9B2FA82F2AF
:100C200052B101FA02F3C2F1200120FA01F10CFAEB
:100C300002FC41EA030E94404FEA1C48210CBEFB23
:100C4000F8F61FFA8CF708FB16E341EA034306FBAC
:100C500007F199420AD91CEB030306F1FF3080F03B
:100C60001F81994240F21C81023E63445B1AA4B288
:100C7000B3FBF8F008FB103344EA034400FB07F72A
:100C8000A7420AD91CEB040400F1FF3380F00A816B
:100C9000A74240F207816444023840EA0640E41B60
:100CA00000261DB1D4400023C5E900433146BDE80C
:100CB000F0878B4209D9002D00F0EF800026C5E9AE
:100CC000000130463146BDE8F087B3FA83F6002EC6
:100CD0004AD18B4202D3824200F2F980841A61EB3E
:100CE000030301209E46002DE0D0C5E9004EDDE75C
:100CF00002B9FFDEB2FA82F2002A40F09280A1EB44
:100D00000C014FEA1C471FFA8CFE0126200CB1FB98
:100D1000F7F307FB131140EA01410EFB03F0884291
:100D200008D91CEB010103F1FF3802D2884200F21E
:100D3000CB804346091AA4B2B1FBF7F007FB1011B0
:100D400044EA01440EFB00FEA64508D91CEB04044E
:100D500000F1FF3102D2A64500F2BB800846A4EBA9
:100D60000E0440EA03409CE7C6F12007B34022FA94
:100D700007FC4CEA030C20FA07F401FA06F31C43C3
:100D8000F9404FEA1C4900FA06F3B1FBF9F8200CD0
:100D90001FFA8CFE09FB181140EA014108FB0EF016
:100DA000884202FA06F20BD91CEB010108F1FF3A66
:100DB00080F08880884240F28580A8F10208614472
:100DC000091AA4B2B1FBF9F009FB101144EA014180
:100DD00000FB0EFE8E4508D91CEB010100F1FF342B
:100DE0006CD28E456AD90238614440EA0840A0FBC3
:100DF0000294A1EB0E01A142C846A64656D353D099
:100E00005DB1B3EB080261EB0E0101FA07F722FABC
:100E100006F3F1401F43C5E9007100263146BDE8E5
:100E2000F087C2F12003D8400CFA02FC21FA03F348
:100E3000914001434FEA1C471FFA8CFEB3FBF7F0C9
:100E400007FB10360B0C43EA064300FB0EF69E42EE
:100E500004FA02F408D91CEB030300F1FF382FD287
:100E60009E422DD9023863449B1B89B2B3FBF7F62F
:100E700007FB163341EA034106FB0EF38B4208D908
:100E80001CEB010106F1FF3816D28B4214D9023E49
:100E90006144C91A46EA004638E72E46284605E767
:100EA0000646E3E61846F8E64B45A9D2B9EB020838
:100EB00064EB0C0E0138A3E74646EAE7204694E7C8
:100EC0004046D1E7D0467BE7023B614432E73046FB
:100ED00009E76444023842E7704700BFDFF834D0C6
:100EE0000D480E490E4A002302E0D458C450043382
:100EF000C4188C42F9D30B4A0B4C002301E0136059
:100F00000432A242FBD301F0CBFC03F0C9FA00F09B
:100F10004FF870470080012000000020FC010020F5
:100F20005C7F0008FC01002028070020FEE700008D
:100F300010B594B03022002108A803F0E3FA002491
:100F4000039404940594069407940194164B1A6C28
:100F500042F080521A641B6C03F080530193019B92
:100F60000294124A136823F4404343F4004313608D
:100F7000136803F440430293029B02230893012366
:100F80000B9310230C930E9408A801F0DBFE0F23A3
:100F900003930494059406940794214603A802F051
:100FA0001FF914B010BD00BF0038024000700040AF
:100FB0002DE980488DB001F0A3FCFFF7B9FF0024B4
:100FC0000794089409940A940B940094934B1A6B19
:100FD00042F004021A631A6B02F004020092009AB3
:100FE00001941A6B42F080021A631A6B02F08002BD
:100FF0000192019A02941A6B42F001021A631A6B71
:1010000002F001020292029A03941A6B42F0020269
:101010001A631A6B02F002020392039A04941A6B89
:1010200042F008021A631B6B03F008030493049B4D
:101030007B4D224640F62C71284601F065FEDFF814
:1010400004A2224649F62001504601F05DFEDFF879
:10105000F89122464FF49C51484601F055FE714FDD
:1010600022460421384601F04FFE4FF441530793C6
:101070004FF488130893099407A9284601F058FDF6
:10108000022607964FF4441BCDF820B0099407A917
:10109000654801F04DFD4FF00108CDF81C80CDF8FA
:1010A00020B0099407A9284601F042FD40F62C73B0
:1010B0000793CDF8208009940A9407A9284601F0E7
:1010C00037FD49F620030793CDF8208009940A9450
:1010D00007A9504601F02CFD4FF4805ACDF81CA012
:1010E000CDF82080099403230A9307A9484601F00C
:1010F0001FFD04230793CDF8208009940A9407A9C3
:10110000384601F015FD4FF460730793CDF8208049
:1011100009940A9407A9484601F00AFD224621468F
:10112000062001F03FFC062001F072FC2246214619
:10113000072001F037FC072001F06AFC2246214617
:10114000172001F02FFC172001F062FC22464146D7
:10115000282001F027FC282001F05AFC334D344BA5
:101160002B604FF482736B60AC604FF40063EB60F4
:101170002E61C5F814804FF40073AB613023EB612E
:101180002C626C62AC620A23EB62284602F09CF986
:10119000284F294B3B604FF4E1337B60BC60FC601F
:1011A0003C610C237B61BC61FC61384602F088FE27
:1011B0000794089409940A94059406941F4E204BB2
:1011C0003360A0237360B4604FF6FF73F360346143
:1011D0007461B461304602F053FCCDF81CA007A93D
:1011E000304602F086FC0594069405A9304602F0CC
:1011F00035FD42465146484601F086FD284600F03E
:10120000DDFF01F0DDF800F0CFFE00F031FF3046E9
:1012100002F0D4FA384600F065FEFEE700380240DE
:1012200000080240000C0240001C0240180200208E
:1012300000380040B8020020004400407002002046
:1012400000000140000002400004024008B50268AE
:10125000044B9A4200D008BD2021034801F05AFDFA
:10126000F9E700BF000001400000024082B0002109
:1012700000910B4B5A6C42F480425A645A6C02F44F
:1012800080420092009A01911A6C42F080521A64D6
:101290001B6C03F080530193019B02B0704700BFA9
:1012A0000038024000B589B00023039304930593EE
:1012B000069307930268154B9A4202D009B05DF875
:1012C00004FB0021019103F500331A6C42F48042C3
:1012D0001A641A6C02F480420192019A02911A6B0C
:1012E00042F002021A631B6B03F002030293029B9B
:1012F0004FF46043039302230493032306930523CF
:10130000079303A9024801F013FCD7E70038004017
:101310000004024002680E4B9A4200D0704700B5AC
:1013200083B00021019103F59C335A6C42F0010215
:101330005A645B6C03F001030193019B0A46192078
:1013400001F030FB192001F063FB03B05DF804FBF2
:101350000000014010B588B0002303930493059367
:10136000069307930268184B9A4201D008B010BD4B
:101370000024019403F5FA331A6C42F400321A6423
:101380001A6C02F400320192019A02941A6B42F034
:1013900001021A631B6B03F001030293029B0C23EF
:1013A000039302230493032306930723079303A9BC
:1013B000064801F0BDFB22462146262001F0F2FA44
:1013C000262001F025FBD1E7004400400000024048
:1013D000FEE7FEE7FEE7FEE7FEE77047704770476F
:1013E00008B501F0A7FA08BD08B5012001F09CFC82
:1013F00008BD08B5022001F097FC08BD08B54020E3
:1014000001F092FC08BD000008B5024802F016FA8F
:1014100008BD00BF7002002008B5024802F06AFE55
:1014200008BD00BFB802002008B54FF4805001F09D
:101430007BFC4FF4005001F077FC08BD01207047A1
:1014400008B503F027F8162303604FF0FF3008BDFE
:1014500008B503F01FF816230360FEE770B5161EEB
:1014600007DD0C468D19AFF3008004F8010BA5428F
:10147000F9D1304670BD70B5161E07DD0C468D19CA
:1014800014F8010BAFF30080A542F9D1304670BDCE
:101490004FF0FF3070474FF400534B60002070470F
:1014A000012070470020704708B503460C4A1268B7
:1014B00052B10B4A106803440A4A0B49521A93422C
:1014C00006D8074A136008BD054A08491160F0E7CD
:1014D00002F0E0FF0C2303604FF0FF30F3E700BFA2
:1014E000FC020020008001200004000028070020EA
:1014F00000B583B00B460E4A00211170082B28BF9F
:101500000B461146DB0053704FF4805300930123C8
:10151000084A02F038F800B1FEE7064B5A7818780E
:1015200040EA0220C0F30B0003B05DF804FB00BFEB
:101530000403002000030020F8B50E4617460446B9
:10154000A8B12378ABB13146204603F091FC2518B1
:10155000235C8BB13146284603F066FC2B182A5CCD
:101560006AB100222A5401333B602846F8BD146852
:10157000E7E73C600025F8E73D600025F5E73B60C4
:10158000F3E7000000B5ADF2044D684601F0BEF887
:10159000FE9B694607489847FE9B69460648984760
:1015A000684601F0D9F80A2001F024F90DF2044D43
:1015B0005DF804FB407700086C77000800B5ADF2D9
:1015C000044D684601F0A2F8FE9B6946044898471E
:1015D000684601F0B5F80DF2044D5DF804FB00BF5C
:1015E000907700082DE9F041ADF5806D684601F077
:1015F0008DF8434D6C1E0E35DFF84081414F424E51
:1016000005E0FE9B694641489847AC4270D014F80B
:10161000013F013B102BF8D801A252F823F000BF84
:1016200003160008651600086F16000879160008F2
:10163000831600080B160008A1160008AB16000858
:10164000B5160008BF1600080B1600088D16000816
:1016500097160008C9160008D3160008DD16000802
:10166000E7160008FE9B694629489847CDE7FE9B90
:10167000694628489847C8E7FE9B69462648984728
:10168000C3E7FE9B694625489847BEE7FE9B69462F
:1016900023489847B9E7FE9B694622489847B4E734
:1016A000FE9B694620489847AFE7FE9B69461F4866
:1016B0009847AAE7FE9B69461D489847A5E7FE9B09
:1016C00069461C489847A0E7FE9B69461A48984718
:1016D0009BE7FE9B69463046984796E7FE9B694626
:1016E0003846984791E7FE9B6946404698478CE705
:1016F000684601F025F80DF5806DBDE8F08100BF6A
:1017000008000020AC780008A478000834780008AD
:101710003C780008447800085078000858780008A1
:10172000647800086C780008747800087C780008F9
:1017300088780008907800089C780008B478000841
:101740002DE9F041ADF5806D684600F0DFFF234DD7
:101750006C1E0635DFF8A080214F224E05E0FE9B6F
:10176000694621489847AC4231D014F8013F062B16
:10177000F9D801A252F823F05F1700089517000866
:1017800067170008A7170008B1170008BB17000863
:10179000C5170008FE9B694614489847FE9B69469A
:1017A00013489847DFE7FE9B694612489847DAE7F7
:1017B000FE9B694630469847D5E7FE9B694638460A
:1017C0009847D0E7FE9B694640469847CBE7684676
:1017D00000F0B6FF0DF5806DBDE8F081000000203F
:1017E0001479000800790008BC780008C078000867
:1017F000C8780008D87800089479000838B50C46F5
:10180000112832D8DFE800F073310910171E253295
:101810003940474E3131575E656C11B900F0C4FB59
:1018200023E000F0CBFB20E011B900F0D1FB1CE07D
:1018300000F0D8FB19E011B900F01AFC15E000F037
:1018400021FC12E011B900F027FC0EE000F02EFCA4
:101850000BE0294D2878FFF7D1FF21466878FFF784
:10186000CDFF2146A878FFF7C9FF38BD11B900F0B8
:10187000C3FBFAE700F0CAFBF7E711B900F0D0FBB1
:10188000F3E700F0D7FBF0E711B900F019FCECE743
:1018900000F020FCE9E711B900F026FCE5E700F0D4
:1018A0002DFCE2E7154D2878FFF7A8FF2146687860
:1018B000FFF7A4FFD9E711B900F0C6FBD5E700F0A8
:1018C000CDFBD2E711B900F023FCCEE700F02AFCF3
:1018D000CBE711B900F030FCC7E700F037FCC4E7F4
:1018E00011B900F03DFCC0E700F044FCBDE7012960
:1018F000BBD100F049FCB8E71C0000201800002014
:1019000030B52DED028BADF2044D04460D46684610
:1019100000F0FCFE601E102800F2C080DFE800F03E
:1019200009141F3742BE616C7782BE4D578D99A551
:10193000B2000421784800F077FCB0EE408AFE9BAC
:10194000694676489847ABE00021734800F06CFC8C
:10195000B0EE408AFE9B694671489847A0E04FF47C
:101960008071704801F0CAF90446FE9B69466E48D2
:101970009847002D00F0A380012D00F0B780684645
:1019800000F0DEFE0DF2044DBDEC028B30BD0221F5
:10199000614800F049FCB0EE408AFE9B694663480E
:1019A00098477DE04FF400615E4801F0A7F90446D6
:1019B000FE9B69465E489847DBE70121594801F0E4
:1019C0009DF90446FE9B69465A489847D1E7022193
:1019D000594801F093F90446FE9B694657489847D9
:1019E000C7E701214C4800F01FFCB0EE408AFE9B87
:1019F00069465348984753E04FF48061494801F0E5
:101A00007DF90446FE9B69464E489847B1E703219D
:101A1000414800F009FCB0EE408AFE9B69464A4806
:101A200098473DE04FF400713E4801F067F90446E5
:101A3000FE9B6946454898479BE70421444801F0CE
:101A40005DF9B0FA80F46409FE9B69464148984705
:101A50008FE72021334801F051F9B0FA80F464098E
:101A6000FE9B69463C48984783E74FF400413B485A
:101A700001F044F9B0FA80F46409FE9B69463848E5
:101A8000984776E78021374801F038F9B0FA80F4BA
:101A90006409FE9B6946344898476AE7BFEE008AAE
:101AA00095B9FFEE007AB4EE678AF1EE10FA3FF4D2
:101AB00066AFFD9B6846B0EE480A98475FE7FC9B1F
:101AC0006946204698475AE7012D7FF458AFDFED6D
:101AD000277AB4EEE78AF1EE10FAB8BF4FF0FF3480
:101AE00006DBFE9B69462248984748E7BFEE008A1E
:101AF000012CF6D0F1EE047AB4EEE78AF1EE10FA9A
:101B000000D924B9FE9B69461A48984737E7FE9BDF
:101B100069461948984732E718020020A87900085A
:101B2000B079000800080240B8790008C4790008BC
:101B3000CC790008D8790008001C0240E079000840
:101B4000E8790008F0790008FC790008047A0008B8
:101B5000000C0240107A00081C7A000800000240C5
:101B6000287A000800040240307A00083333B34179
:101B7000387A0008407A0008487A0008F8B50A4D1B
:101B800001240026202703E00E2C00DDF8BD0134DF
:101B9000314615F8010FFFF7B3FE631E0D2BF3DC82
:101BA000384600F027FEF2E707000020F8B50A4D9E
:101BB00001242646202703E00E2C00DDF8BD013469
:101BC000314615F8010FFFF79BFE631E0D2BF3DC6A
:101BD000384600F00FFEF2E70700002030B5ADF206
:101BE000044D0D4603780D2B01D00A2B00D1013096
:101BF0009D4A9E49FFF7A0FC0446002800F0C280E1
:101C00009B4903F011F9002323542378002B00F0A3
:101C1000B98098492046FEF7E3FA002800F0AF802B
:101C200095492046FEF7DCFA002800F0AE80934983
:101C30002046FEF7D5FA002800F0AB8090492046F8
:101C4000FEF7CEFA002800F0A8808E492046FEF765
:101C5000C7FA002800F0A5808B492046FEF7C0FA9D
:101C6000002800F0A28089492046FEF7B9FA002832
:101C700000F09F8086492046FEF7B2FA002800F067
:101C80009C8084492046FEF7ABFA002800F099803A
:101C900081492046FEF7A4FA002800F096807F498B
:101CA0002046FEF79DFA002800F093807C492046EC
:101CB000FEF796FA002800F090807A492046FEF759
:101CC0008FFA002800F08D8077492046FEF788FAC9
:101CD000002800F08A8075492046FEF781FA002826
:101CE00000F0878072492046FEF77AFA002800F05B
:101CF000848070492046FEF773FA002800F0818046
:101D00006D492046FEF76CFA00287ED06B492046CC
:101D1000FEF766FA00287DD069492046FEF760FA92
:101D200000287CD067492046FEF75AFA00287BD06D
:101D300065492046FEF754FA00287AD063492046C8
:101D4000FEF74EFA002877D061492046FEF748FAA0
:101D5000002874D05F492046FEF742FA002871D06F
:101D60005D492046FEF73CFA00286ED05B492046CC
:101D7000FEF736FA00286BD100F0D4FC02E0012116
:101D8000FFF72CFF0DF2044D30BD0221FFF726FFB7
:101D9000F8E70321FFF722FFF4E70421FFF71EFF16
:101DA000F0E70521FFF71AFFECE70621FFF716FF22
:101DB000E8E70721FFF712FFE4E70821FFF70EFF2E
:101DC000E0E70921FFF70AFFDCE70A21FFF706FF3A
:101DD000D8E70B21FFF702FFD4E70E21FFF7FEFE45
:101DE000D0E70F21FFF7FAFECCE71021FFF7F6FE50
:101DF000C8E71121FFF7F2FEC4E70C21FFF7EEFE62
:101E0000C0E70D21FFF7EAFEBCE700212846FFF7F7
:101E1000F5FCB7E701212846FFF7F0FCB2E7012106
:101E20002846FFF76DFDADE700212846FFF768FD66
:101E3000A8E7FFF7A3FEA5E7FFF7B8FEA2E7FFF7C5
:101E4000BDFB9FE7FFF7CEFB9CE7FFF779FC99E727
:101E5000684600F05BFCFE9B69462148984768464F
:101E600000F07AFC8EE700BF080300204C7A0008DF
:101E7000507A0008547A0008587A0008607A0008FE
:101E80006C7A0008747A0008807A0008887A000862
:101E9000907A00089C7A0008A47A0008B07A0008BA
:101EA000B87A0008C07A0008C87A0008CC7A00081E
:101EB000D07A0008D47A0008D87A0008DC7A0008C2
:101EC000E07A0008E87A0008F07A0008F87A00085A
:101ED000007B0008087B0008107B0008187B0008C6
:101EE000207B000800B5ADF2044D00F0FBFB684616
:101EF00000F00CFCFFF746FB00250A249DF8EC33AC
:101F0000012B07D09DF8EC33002BF7D1684600F089
:101F100083FCF2E729466846FFF760FEFF9B6846B0
:101F200098478DF8EC53204600F064FCEAE7000087
:101F300008B501222021024800F0E6FE08BD00BFDE
:101F40000000024008B500222021024800F0DCFE1B
:101F500008BD00BF0000024008B50122042102486C
:101F600000F0D2FE08BD00BF0008024008B5002204
:101F70000421024800F0C8FE08BD00BF000802406E
:101F800008B501220821024800F0BEFE08BD00BFCE
:101F90000008024008B500220821024800F0B4FE03
:101FA00008BD00BF0008024008B501224FF480516F
:101FB000014800F0A9FE08BD0000024008B500225B
:101FC0004FF48051014800F09FFE08BD0000024020
:101FD00008B501224FF48071014800F095FE08BD5C
:101FE0000008024008B500224FF48071014800F05B
:101FF0008BFE08BD0008024008B501224FF4807135
:10200000014800F081FE08BD0004024008B500222E
:102010004FF48071014800F077FE08BD00040240D3
:1020200008B501224FF48061014800F06DFE08BD43
:102030000008024008B500224FF48061014800F01A
:1020400063FE08BD0008024008B5002204210248D2
:1020500000F05AFE08BD00BF000C024008B5012286
:102060000421024800F050FE08BD00BF000C0240F1
:1020700008B501224FF40071014800F045FE08BD8B
:102080000004024008B500224FF40071014800F03E
:102090003BFE08BD0004024008B501224FF4006178
:1020A000014800F031FE08BD0008024008B50022DA
:1020B0004FF40061014800F027FE08BD000802400F
:1020C00008B501224FF40061014800F01DFE08BD73
:1020D0000000024008B500224FF40061014800F002
:1020E00013FE08BD0000024008B501224FF4007144
:1020F000014800F009FE08BD0008024008B50022B2
:102100004FF40071014800F0FFFD08BD00080240D7
:1021100008B500222021024800F0F6FD08BD00BFEE
:102120000008024008B501222021024800F0ECFD21
:1021300008BD00BF0008024008B500224FF400416E
:10214000014800F0E1FD08BD0000024008B5012291
:102150004FF40041014800F0D7FD08BD00000240E7
:1021600008B500228021024800F0CEFD08BD00BF66
:102170000004024008B501228021024800F0C4FD9D
:1021800008BD00BF0004024008B5FFF72BFFFFF7B2
:102190008DFFFFF74FFFFFF7B1FFFFF75FFFFFF77F
:1021A000C1FFFFF733FFFFF795FFFFF707FFFFF7CB
:1021B00069FFFFF7CBFFFFF7DDFF08BD38B52DED59
:1021C000028B0446134D00224FF48051284600F044
:1021D0009BFD00212046FFF78BF907EE900AF8EEF1
:1021E000E77A9FED0D7A67EE877A9FED0C7A87EE9E
:1021F000878ADFED0B7A28EE278A01224FF480517F
:10220000284600F081FD9FED070A38EE000ABDEC7C
:10221000028B38BD000402403333534000F07F4549
:102220001CC791419A99993E70B52DED028B0446D9
:102230000D46164E00224FF48051304600F064FDEA
:1022400029462046FFF754F900212046FFF750F9B0
:1022500007EE900AF8EEE77A9FED0D7A67EE877A3F
:102260009FED0C7A87EE878ADFED0B7A28EE278ABE
:1022700001224FF48051304600F046FD9FED070AE1
:1022800038EE000ABDEC028B70BD00BF00040240B6
:102290003333534000F07F451CC791419A99993ED2
:1022A00038B52DED048B04463B4D00224FF4805190
:1022B000284600F029FD01212046FFF719F907EE15
:1022C000100AB8EEC77ADFED359A27EE297A9FED2E
:1022D000349AC7EE097ADFED338A67EEA87A9FED6C
:1022E000328A77EE887A314BC3ED007A022120469C
:1022F000FFF7FEF807EE100AB8EEC77A27EE297A44
:10230000C7EE097A67EEA87A77EE887A284BC3ED94
:10231000007A03212046FFF7EBF807EE100AB8EE2B
:10232000C77A27EE297AC7EE097A67EEA87A77EEA0
:10233000887A204BC3ED007A04212046FFF7D8F8B5
:1023400007EE100AB8EEC77A27EE297AC7EE097AA7
:1023500067EEA87A77EE887A174BC3ED007A0021F2
:102360002046FFF7C5F807EE100AB8EEC77A27EE49
:10237000297AC7EE097A67EEA87A77EE887A0F4B4A
:10238000C3ED007A01224FF48051284600F0BCFCD6
:102390000020BDEC048B38BD0004024033335340B1
:1023A00000F07F451CC791419A99993E1403002083
:1023B0000C03002018030020100300201C03002041
:1023C00008B5FFF7E1FE5E4B01221A70FFF7B0FD82
:1023D0004FF4AF7000F0C0FAFFF7BEFD4FF4AF70DE
:1023E00000F0BAFAFFF7CCFD4FF4AF7000F0B4FA8A
:1023F000FFF7D0FD4FF4AF7000F0AEFAFFF7B6FD77
:102400004FF4AF7000F0A8FA4E48FFF749FF4E4B6B
:1024100093ED007AF1EE047AB4EEE77AF1EE10FA79
:1024200007DC4A4B93ED007AB4EEE77AF1EE10FA4E
:1024300001DDFFF7A5FDFFF7B7FD4FF4AF7000F02A
:102440008BFA4048FFF72CFF3F4B93ED007ADFED0E
:10245000407AB4EEE77AF1EE10FA09D43B4B93EDF3
:10246000007AF1EE047AB4EEE77AF1EE10FA01DDCB
:10247000FFF786FDFFF7C0FD4FF4AF7000F06CFA78
:102480003048FFF70DFF334B93ED007ADFED307AE4
:10249000B4EEE77AF1EE10FA09D42C4B93ED007A02
:1024A000F1EE047AB4EEE77AF1EE10FA01DDFFF70F
:1024B00067FDFFF7DDFD4FF4AF7000F04DFA2148E6
:1024C000FFF7EEFE204B93ED007ADFED217AB4EEBC
:1024D000E77AF1EE10FA07D41C4B93ED007AB4EED4
:1024E000E77AF1EE10FA01D5FFF74AFDFFF7E8FDB4
:1024F0004FF4AF7000F030FA1248FFF7D1FE154BE1
:1025000093ED007ADFED127AB4EEE77AF1EE10FA8D
:1025100007D4114B93ED007AB4EEE77AF1EE10FA9E
:1025200001D5FFF72DFDFFF7D5FD4FF4AF7000F09B
:1025300013FAFFF729FEFFF705FDFFF717FD08BDAA
:10254000200300201802002014030020180300209C
:102550003333B3410C0300201003002008B5FFF70C
:1025600019FDFFF7E5FC294B1B78022B20D9032B23
:102570003DD1FFF74BFDFFF7ADFD244B02221A7052
:102580002348FFF78DFE234B93ED007AF1EE047A9A
:10259000B4EEE77AF1EE10FA07DC1F4B93ED007A08
:1025A000B4EEE77AF1EE10FA21DDFFF7E9FCFEE781
:1025B000FFF722FDFFF784FD144B03221A70144825
:1025C000FFF76EFE134B93ED007ADFED147AB4EE55
:1025D000E77AF1EE10FA07D40F4B93ED007AB4EEE0
:1025E000E77AF1EE10FA02D5FFF7CAFCFEE7FFF733
:1025F000A9FC4FF4967000F0AFF9094B4FF400526C
:102600005A61282000F026FA08BD00BF20030020F0
:10261000180200200C030020100300203333B341C4
:10262000003C0140704770477047704708B540282C
:1026300016D008D9B0F5805F0FD0B0F5005F01D19A
:10264000FFF78CFF08BD012804D00228FAD1FFF75C
:10265000EAFFF7E7FFF7E6FFF4E7FFF7E5FFF1E74B
:10266000FFF7E3FFEEE7000010B5ADF57A7D024617
:102670000C460649684602F0B7FB0246694620460A
:1026800002F0E3FB0DF57A7D10BD00BF487B00082A
:1026900010B5ADF57A7D044610EE100AFDF76CFF1B
:1026A00002460B460549684602F09EFB0246694613
:1026B000204602F0CAFB0DF57A7D10BD4C7B000868
:1026C00038B505460C46FDF795FD024629462046DD
:1026D00002F0BBFB38BD08B54FF47A72002101F05F
:1026E00011FF08BD08B5084A10604FF4E13242609E
:1026F00000228260C2600261826101F0E1FB003869
:1027000018BF012008BD00BF2803002010B50446F3
:102710004FF48062024901F0E7FE204610BD00BF81
:102720004073000808B564230A220349034800687F
:1027300001F0F5FB08BD00BF507B00082803002016
:1027400008B5014664234FF47A720248006801F02C
:10275000E6FB08BD2803002030B5ADF57D7D0146C0
:1027600001AC4FF47A752A46204601F0BDFE2046A2
:10277000FDF740FD064B1B88235264232A46214661
:102780000448006801F0CBFB0DF57D7D30BD00BF36
:10279000907900082803002070B5ADF57C7D0446D3
:1027A00090F8EC53022D1DD001AD4FF47A763246ED
:1027B0000146284601F098FE2846FDF71BFD0B4B0D
:1027C0001B882B526423324629460948006801F0D1
:1027D000A6FB0546D4F8FC332046984728460DF55D
:1027E0007C7D70BD042380F8EC33F7E79079000816
:1027F0002803002000B583B08DF807006423012270
:102800000DF107010348006801F089FB03B05DF892
:1028100004FB00BF2803002008B590F8EC3313B97F
:10282000022380F8EC33054B18604FF47A720449A8
:10283000044B186801F0F5FD08BD00BF240300201B
:102840002C0300202803002038B5124B1B6883425C
:1028500000D038BD104C2168104DD1F8F83328460F
:1028600098474FF47A720021284601F04BFE206809
:1028700090F8EC33032B07D0042B08D0022BE8D1BF
:10288000012380F8EC33E4E7FFF75AFFE1E7FFF7B5
:1028900083FFDEE728030020240300202C03002010
:1028A000034AD2F8883043F47003C2F88830704786
:1028B00000ED00E010B504460E4B18784FF47A7323
:1028C000B3FBF0F30C4A1068B0FBF3F000F0AEF885
:1028D00068B90F2C01D901200AE0002221464FF0EF
:1028E000FF3000F05FF8054B1C60002000E0012085
:1028F00010BD00BF24000020200000202800002080
:1029000008B50B4B1A6842F400721A601A6842F458
:1029100080621A601A6842F480721A60032000F024
:102920002FF80020FFF7C6FFFEF7A0FC002008BD2F
:10293000003C0240034A1168034B1B780B441360B0
:10294000704700BF1407002024000020014B1868C6
:10295000704700BF1407002038B50446FFF7F6FFA4
:102960000546B4F1FF3F02D0044B1B781C44FFF72F
:10297000EDFF401BA042FAD338BD00BF2400002069
:102980000749CA68030203F4E06322F4E062120418
:10299000120C134343F0BF6343F40033CB60704722
:1029A00000ED00E000B5184BDB68C3F30223C3F170
:1029B000070CBCF1040F28BF4FF0040C03F1040E08
:1029C000BEF1060F8CBF033B00234FF0FF3E0EFA13
:1029D0000CFC21EA0C0199400EFA03F322EA0302EF
:1029E0001143002809DB0901C9B200F1604000F57C
:1029F000614080F800135DF804FB00F00F0009014E
:102A0000C9B2024B1954F6E700ED00E014ED00E006
:102A1000002808DB420900F01F00012303FA00F040
:102A2000014B43F82200704700E100E00138B0F1AB
:102A3000807F0BD24FF0E0235861054AF02182F8E5
:102A400023100020986107221A6170470120704707
:102A500000ED00E0002809DB430900F01F0001221F
:102A600002FA00F06033024A42F82300704700BFC8
:102A700000E100E070B50446866DFFF767FF94F84B
:102A80003530DBB2022B06D080236365002384F847
:102A90003430012070BD05462268136823F0160308
:102AA00013602268536923F080035361236CE3B100
:102AB0002268136823F0080313602268136823F068
:102AC0000103136023681B6813F0010F11D0FFF797
:102AD0003DFF431B052BF5D920236365032084F8B4
:102AE0003500002384F83430D4E7A36C002BDFD109
:102AF000E3E7E26D3F239340B360012384F8353070
:102B0000002084F83400C5E790F83530DBB2022BA2
:102B100003D08023436501207047052380F83530BA
:102B20000268136823F0010313600020704700005F
:102B30002DE9F04F83B0002213464FF0010E03251C
:102B4000DFF8B4816A4C4BE0876805FA02FA27EA9D
:102B50000A0ACF68974047EA0A078760476827EA6A
:102B60000C0C4F68C7F300179F4047EA0C074760FB
:102B700044E04FF0000C0CFA0BFC4CEA0A0CC7F8CE
:102B800008C0A7686FEA090C4E6816F4801F0CBFD6
:102B90000CEA070749EA0707A760E7684E6816F4DA
:102BA000001F0CBF0CEA070749EA0707E7606768E0
:102BB0004E6816F4003F0CBF0CEA070749EA070706
:102BC000676027684E6816F4803F0CBF0CEA070761
:102BD00049EA0707276001330232102B00F0858095
:102BE0000EFA03FC0F680CEA07093CEA0706F2D16B
:102BF0004F6807F00307013F012FA5D94F6807F081
:102C00000307032F24D0C76805FA02FC27EA0C0C3F
:102C10008F68974047EA0C07C7604F6807F00307C3
:102C2000022F15D14FEAD30C00EB8C0CDCF820A05E
:102C300003F007074FEA870B0F2707FA0BF72AEA7B
:102C4000070A0F6907FA0BF747EA0A07CCF8207062
:102C5000076805FA02FC27EA0C0C4F6807F0030727
:102C6000974047EA0C0707604F6817F4403FB2D01F
:102C7000002701971F4E776C47F480477764776C85
:102C800007F480470197019F23F0030707F180476E
:102C900007F59C37D7F808A003F0030C4FEA8C0B1C
:102CA0004FF00F0C0CFA0BFC2AEA0C0A40453FF4DB
:102CB00060AFA6F55056B04210D006F58066B0421F
:102CC0000ED006F58066B0420DD006F58066B042A3
:102CD0000CBF4FF0040C4FF0070C4CE7F4464AE7EA
:102CE0004FF0020C47E7AC4645E703B0BDE8F08F74
:102CF000003C0140003802400000024003691942D4
:102D000014BF0120002070470AB181617047090497
:102D100081617047436901EA030221EA030141EA44
:102D2000024181617047000008B5054B5B690342B1
:102D300000D108BD024B5861FFF778FCF9E700BFEE
:102D4000003C0140002800F0E1812DE9F04182B013
:102D50000446036813F0010F3BD09F4B9B6803F0C0
:102D60000C03042B2CD09C4B9B6803F00C03082B0A
:102D700021D06368B3F5803F4FD0B3F5A02F52D078
:102D8000954B1A6822F480321A601A6822F4802265
:102D90001A606368002B50D0FFF7D8FD05468E4EB1
:102DA000336813F4003F14D1FFF7D0FD401B6428B3
:102DB000F6D90320B1E1884B5B6813F4800FD8D0BB
:102DC000854B1B6813F4003F03D06368002B00F0B1
:102DD0009F81236813F0020F54D07F4B9B6813F040
:102DE0000C0F3ED07C4B9B6803F00C03082B33D0B8
:102DF000E368002B68D0794B01221A60FFF7A6FD2B
:102E00000546754E336813F0020F54D1FFF79EFD4F
:102E1000401B0228F6D903207FE16F4A136843F470
:102E200080331360B5E76C4B1A6842F480221A6055
:102E30001A6842F480321A60ABE7FFF787FD054657
:102E4000654E336813F4003FC3D0FFF77FFD401B8E
:102E50006428F6D9032060E15F4B5B6813F4800FB0
:102E6000C6D15D4B1B6813F0020F03D0E368012B42
:102E700040F05081584A1368216923F0F80343EA6F
:102E8000C1031360236813F0080F42D063696BB36A
:102E9000524B0122C3F8802EFFF758FD05464E4ED7
:102EA000736F13F0020F34D1FFF750FD401B02285F
:102EB000F6D9032031E1484A1368216923F0F80369
:102EC00043EAC1031360DDE7444B00221A60FFF7B9
:102ED0003DFD0546404E336813F0020FD2D0FFF798
:102EE00035FD401B0228F6D9032016E13B4B00229A
:102EF000C3F8802EFFF72AFD0546374E736F13F097
:102F0000020F06D0FFF722FD401B0228F6D903204E
:102F100003E1236813F0040F76D02F4B1B6C13F0E2
:102F2000805F33D1002301932B4B1A6C42F0805207
:102F30001A641B6C03F080530193019B0125284BFD
:102F40001B6813F4807F23D0A368012B34D0052B9A
:102F500038D0214B1A6F22F001021A671A6F22F043
:102F600004021A67A368002B3CD0FFF7EFFC06466B
:102F7000194F41F288383B6F13F0020F43D1FFF72E
:102F8000E5FC801B4045F6D90320C6E00025D6E7C6
:102F9000134A136843F480731360FFF7D7FC0646A7
:102FA0000F4F3B6813F4807FCED1FFF7CFFC801B1F
:102FB0000228F6D90320B0E0074A136F43F001035B
:102FC0001367CFE7044B1A6F42F004021A671A6FB7
:102FD00042F001021A67C5E700380240000047428C
:102FE00000700040FFF7B2FC0646524F41F28838AD
:102FF0003B6F13F0020F06D0FFF7A8FC801B404583
:10300000F6D9032089E0EDB9A369002B00F0848094
:10301000484A926802F00C02082A51D0022B17D0BD
:10302000454B00221A66FFF791FC0446414D2B6880
:1030300013F0007F42D0FFF789FC001B0228F6D96D
:1030400003206AE03B4A136C23F080531364DBE7F0
:10305000394B00221A66FFF779FC0546354E336876
:1030600013F0007F06D0FFF771FC401B0228F6D951
:10307000032052E0E369226A1343626A43EA82133F
:10308000E26A43EA0263A26A5208013A43EA02434F
:10309000284A5360284B01221A66FFF757FC044662
:1030A000244D2B6813F0007F06D1FFF74FFC001B67
:1030B0000228F6D9032030E000202EE000202CE08A
:1030C000012B2DD01B4B5B6803F48001E269914218
:1030D00028D103F03F02216A8A4225D1616A47F66E
:1030E000C0721A40B2EB811F20D103F44031A26AB2
:1030F0005208013AB1EB024F1AD1E26A03F0706351
:10310000B3EB026F14BF0120002006E001207047DE
:10311000012002E0012000E0002002B0BDE8F081C3
:103120000120FAE70120F8E70120F6E70120F4E7A3
:103130000120F2E7003802400000474208B5254B65
:103140009B6803F00C03042B3FD0082B3FD1214B8D
:103150005A6802F03F025B6813F4800F12D01D4BD7
:103160005968C1F388111C480023A1FB0001FDF739
:1031700033FD184B5B68C3F3014301335B00B0FBC5
:10318000F3F025E0134B5968C1F3881C4FEA4C114A
:10319000B1EB0C006EEB0E0E4FEA8E1343EA906318
:1031A0008101091A63EB0E03DB0043EA5173C90086
:1031B00011EB0C0C43F10003990200234FEA8C2021
:1031C00041EA9C51FDF708FDD3E7034800E00348BE
:1031D00008BD00BF0038024040787D010024F400A3
:1031E000002800F09D802DE9F0410D460446504B2B
:1031F0001B6803F007038B4208D2CBB24C4A137012
:10320000136803F007038B4240F08C80236813F0AF
:10321000020F17D013F0040F04D0464A936843F40A
:10322000E0539360236813F0080F04D0414A936879
:1032300043F4604393603F4A936823F0F003A1682E
:103240000B439360236813F0010F32D06268012AA8
:1032500021D0931E012B25D9364B1B6813F0020F8A
:1032600062D034498B6823F0030313438B60FFF76C
:103270006DFB06462F4F41F28838BB6803F00C0304
:103280006268B3EB820F14D0FFF760FB801B4045F0
:10329000F3D9032042E0274B1B6813F4003FE0D131
:1032A00001203BE0234B1B6813F0007FD9D10120A4
:1032B00034E01F4B1B6803F00703AB4207D9EAB2A7
:1032C0001B4B1A701B6803F00703AB422ED1236817
:1032D00013F0040F06D0174A936823F4E053E16813
:1032E0000B439360236813F0080F07D0114A9368CB
:1032F000216923F4604343EAC1039360FFF71EFF93
:103300000C4B9B68C3F303130B4AD35CD8400B4BA5
:1033100018600B4B1868FFF7CDFA0020BDE8F0816C
:10332000012070470120F9E70120F7E70120F5E7C8
:10333000003C0240003802405C7B00082000002076
:1033400028000020044B9B68C3F38223034AD35C0C
:10335000034A1068D8407047003802406C7B000870
:1033600020000020044B9B68C3F34233034AD35C24
:10337000034A1068D8407047003802406C7B000850
:10338000200000202DE9F04782B081460F46164606
:103390001D46FFF7DBFA0A9B2B44A3EB0008FFF75F
:1033A000D5FA82462D4B1B68C3F3CB3308FB03F3DE
:1033B0000193D9F800309C6837EA04020CBF4FF043
:1033C000010C4FF0000CB44544D0B5F1FF3FF2D0F2
:1033D000FFF7BCFAA0EB0A00404507D2019B002B87
:1033E00008BF9846019B013B0193E2E7D9F8002012
:1033F000536823F0E0035360D9F80430B3F5827FBB
:103400000CD0D9F82830B3F5005F16D0012389F825
:103410005130002389F8503003201CE0D9F80830DF
:10342000B3F5004F02D0B3F5806FEAD1D9F8002090
:10343000136823F040031360E3E7D9F80020136812
:1034400023F400531360D9F80020136843F40053A9
:103450001360DBE7002002B0BDE8F0872000002009
:1034600010B584B00446164B1868164BA3FB003009
:10347000400D4FF47A7303FB00F003906368B3F5DB
:10348000827F0BD0039BBBB1039B013B039323685B
:103490009B6813F0800FF5D100200EE000920B46E0
:1034A000002280212046FFF76DFF30B1636D43F0AD
:1034B00020036365032000E0002004B010BD00BFBE
:1034C00020000020819F5E1600285AD010B50446C7
:1034D000436A33B94368B3F5827F05D00023C361E3
:1034E00002E00023036143610023A36294F851309A
:1034F000002B40D0022384F851302268136823F057
:10350000400313602268636803F48273A16801F4C6
:1035100004410B43E16801F400610B43216901F0B0
:1035200002010B43616901F001010B43A16901F440
:1035300000710B43E16901F038010B43216A01F08E
:1035400080010B43A16A01F400510B431360216811
:10355000638B03F00403626A02F0100213434B60B2
:103560002268D36923F40063D361002060650123DE
:1035700084F8513010BD84F850302046FDF792FE9B
:10358000B8E7012070472DE9F04383B01F460A9D3C
:1035900090F85030012B00F00E8104468846914689
:1035A000012380F85030FFF7D1F9064694F8510016
:1035B000C0B201280BD06368B3F5827F40F0E3808E
:1035C000A368002B40F0E980042840F0E880B8F1BF
:1035D000000F00F0E680B9F1000F00F0E480002F4A
:1035E00000F0E38094F85130DBB2042B1CBF0523BC
:1035F00084F8513000236365C4F83890E787A787C3
:10360000C4F83080E786A7862364636423681A6859
:1036100012F0400F03D11A6842F040021A60E368CA
:10362000B3F5006F12D063680BB1012F0AD1236884
:10363000226B12781A73236B01332363E38E013BF1
:103640009BB2E38601274FF0000867E063680BB187
:10365000012F0AD12368226B1288DA60236B0233B0
:103660002363E38E013B9BB2E38601274FF0000802
:103670001BE02268936813F001030DD0E18F89B23B
:1036800051B1D168A26B1180A26B0232A263E28FAA
:10369000013A92B2E2871F46FFF758F9801BA84211
:1036A00003D3B5F1FF3F40F08280E38E9BB21BB99C
:1036B000E38F9BB2002B52D023689A6812F0020F5E
:1036C000D7D0E28E92B2002AD3D0002FD1D0226B75
:1036D0001288DA60236B02332363E38E013B9BB2D3
:1036E000E3864746C5E72268936813F001030DD0CF
:1036F000E18F89B251B1D168A26B1170A26B013216
:10370000A263E28F013A92B2E2871F46FFF71EF9E9
:10371000831BAB421FD3B5F1FF3F4AD1E38E9BB26F
:1037200013B9E38F9BB2D3B123689A6812F0020FEA
:10373000D9D0E28E92B2002AD5D0012FD3D1226BFC
:1037400012781A73236B01332363E38E013B9BB220
:10375000E3864746C7E7002DE0D1032014E0324658
:1037600029462046FFF77CFE48B9A36863B9019358
:103770002368DA6801929B680193019B04E020238F
:103780006365012000E00220012384F8513000230A
:1037900084F8503003B0BDE8F0830220F4E7022043
:1037A000F2E70120F0E70120EEE70120ECE703203B
:1037B000EAE70320E8E70220ECE7000090F83D305C
:1037C000DBB2012B2FD1022380F83D300268D36891
:1037D00043F00103D3600368154A934218D0B3F154
:1037E000804F15D0A2F57C42934211D002F5806241
:1037F00093420DD002F58062934209D002F59A32CD
:10380000934205D01A6842F001021A600020704706
:103810009A6802F00702062A07D01A6842F00102ED
:103820001A6000207047012070470020704700BFD9
:1038300000000140704770477047704710B504465C
:1038400003681A6912F0020F11D0DA6812F0020F41
:103850000DD06FF002021A610123037703689B69A0
:1038600013F0030F70D0FFF7E6FF002323772368E0
:103870001A6912F0040F12D0DA6812F0040F0ED099
:103880006FF004021A610223237723689B6913F403
:10389000407F5FD02046FFF7CEFF002323772368C9
:1038A0001A6912F0080F12D0DA6812F0080F0ED061
:1038B0006FF008021A61042323772368DB6913F091
:1038C000030F4ED02046FFF7B6FF0023237723686F
:1038D0001A6912F0100F12D0DA6812F0100F0ED021
:1038E0006FF010021A61082323772368DB6913F451
:1038F000407F3DD02046FFF79EFF002323772368BB
:103900001A6912F0010F03D0DA6812F0010F36D1F4
:1039100023681A6912F0800F03D0DA6812F0800F62
:1039200034D123681A6912F0400F03D0DA6812F01C
:10393000400F32D123681A6912F0200F03D0DA68E1
:1039400012F0200F30D110BDFFF774FF2046FFF7B3
:1039500073FF8AE72046FFF76DFF2046FFF76CFFF5
:103960009BE72046FFF766FF2046FFF765FFACE7C1
:103970002046FFF75FFF2046FFF75EFFBDE76FF0D1
:1039800001021A612046FDF761FCC1E76FF0800279
:103990001A61204600F09FF9C3E76FF040021A61F8
:1039A0002046FFF74AFFC5E76FF020021A61204664
:1039B00000F090F9C7E700000368304A904242D017
:1039C000B0F1804F21D0A2F57C42904231D002F577
:1039D000806290424CD002F5806290422ED002F577
:1039E0009A32904215D002F58062904211D002F5D1
:1039F000806290420DD023F080034A691343036034
:103A00008B68C3620B68836210E023F070034A681E
:103A1000134323F44073CA68134323F080034A69B5
:103A2000134303608B68C3620B68836201234361A5
:103A3000704723F070034A681343EAE723F07003EA
:103A40004A681343E5E723F070034A68134323F4FD
:103A50004073CA68134323F080034A691343036029
:103A60008B68C3620B6883620A69044B1A63DDE7E3
:103A700023F070034A681343CBE700BF0000014006
:103A800040B310B5044690F83D30F3B1022384F8FA
:103A90003D30214651F8040BFFF78EFF012384F8D7
:103AA000463084F83E3084F83F3084F8403084F863
:103AB000413084F8423084F8433084F8443084F84C
:103AC000453084F83D30002010BD80F83C30FDF7D3
:103AD00021FCDBE70120704710B4846824F47F4C9C
:103AE0000A4342EA032242EA0C0282605DF8044B78
:103AF000704790F83C30012B00F0AE8070B5044662
:103B0000012380F83C30022380F83D30026893683E
:103B100023F47F4323F0770393600B68602B60D01E
:103B20003DD8402B79D01CD9502B36D1036848683A
:103B3000CD68196A1A6A22F001021A629A6922F0A3
:103B4000F00242EA051221F00A0101439A6119626A
:103B50002268936823F0700343F0570393600020BA
:103B600012E0202B02D00BD9302B14D121688A68A7
:103B700022F07002134343F007038B60002003E040
:103B800033F01002F2D00120012384F83D300023ED
:103B900084F83C3070BD0120F6E70120F4E7B3F56E
:103BA000805F55D0B3F5005F0CD1CB684A68896857
:103BB0000068FFF791FF2268936843F480439360A5
:103BC0000020E1E7702B45D1CB684A68896800681E
:103BD000FFF782FF2268936843F077039360002029
:103BE000D2E703684D68CE68186A20F010001862AA
:103BF00099691A6A21F4704141EA063122F0A00263
:103C000042EA051299611A622268936823F07003F0
:103C100043F0670393600020B6E703684868CD6807
:103C2000196A1A6A22F001021A629A6922F0F002F5
:103C300042EA051221F00A0101439A6119622268E1
:103C4000936823F0700343F04703936000209BE7E1
:103C5000002099E7012097E70220704790F83C3058
:103C6000012B33D030B4012380F83C30022380F89C
:103C70003D3004686368A26823F070030D682B432D
:103C800063600368124CA34212D0B3F1804F0FD08F
:103C9000A4F57C44A3420BD004F58064A34207D072
:103CA00004F58064A34203D004F59A34A34204D1FE
:103CB00022F0800249680A439A60012380F83D306F
:103CC000002380F83C30184630BC70470220704713
:103CD0000000014070477047026802F10C0353E88E
:103CE000003F23F490730C3242E800310029F3D1F5
:103CF000026802F1140353E8003F23F00103143279
:103D000042E800310029F3D1036B012B05D02023B9
:103D100080F83E30002303637047026802F10C0311
:103D200053E8003F23F010030C3242E80031002931
:103D3000F3D1ECE738B504460268136923F4405325
:103D4000C1680B4313610168CA6883680069034353
:103D500060690343E069034322F4164222F00C0237
:103D60001343CB602268536923F44073A1690B436A
:103D7000536123682E4A934206D002F58062934233
:103D800002D0FFF7DFFA01E0FFF7ECFAE369B3F5E1
:103D9000004F24D00021031849411B1841F10001B4
:103DA000C90041EA5371DB00181863684FEA8302C7
:103DB0004FEA937341F10001FCF70EFF21681D4AA1
:103DC000A2FB00435B09642404FB130000013230B2
:103DD000A2FB00201B0103EB5010886038BD0023BC
:103DE000021843EB0301121841F10001C90041EA36
:103DF0005271D200101841F10001626892185B41C3
:103E0000FCF7EAFE0B4DA5FB00325109642303FBCE
:103E10001103DB003233A5FB03232068C3F34212F6
:103E200002EB01121B0903F4F87313448360D5E716
:103E3000001001401F85EB512DE9F84380460E46E6
:103E400015469946089FD8F80020146836EA0403FE
:103E50000CBF4FF0010C4FF0000CAC452DD1B7F169
:103E6000FF3FF2D02FB1FEF771FDA0EB0900B84281
:103E7000E9D9D8F8002002F10C0353E8003F23F4FD
:103E8000D0730C3242E800310029F2D1D8F800207A
:103E900002F1140353E8003F23F00103143242E817
:103EA00000310029F2D1202388F83D3088F83E30D7
:103EB000002388F83C30032000E00020BDE8F883B0
:103EC00058B310B5044690F83D300BB3242384F862
:103ED0003D302268D36823F40053D3602046FFF7B7
:103EE00029FF2268136923F4904313612268536900
:103EF00023F02A0353612268D36843F40053D3604C
:103F000000202064202384F83D3084F83E3010BD2A
:103F100080F83C30FDF71EFAD8E7012070472DE904
:103F2000F04782B01E4690F83D30DBB2202B5AD1CC
:103F300004460D469046002959D0002A59D090F8E1
:103F40003C30012B57D0012380F83C300023036420
:103F5000212380F83D30FEF7F9FC0746A4F82480C1
:103F6000A4F82680A368B3F5805F0CD04FF0000A58
:103F7000002384F83C30E38C9BB243B34FF000093C
:103F80004FF0800814E0236913B9AA460025EFE733
:103F90004FF0000AECE722683AF8023BC3F308034B
:103FA0005360E28C013A92B2E284E38C9BB273B12B
:103FB00000963B464A4641462046FFF73DFFE0B9A2
:103FC000002DE8D0236815F8012B5A60E9E7009628
:103FD0003B46002240212046FFF72EFF78B92023E0
:103FE00084F83D3000E0022002B0BDE8F0870120F7
:103FF000FAE70120F8E70220F6E70320F4E70320C0
:10400000F2E770477047704708B5806B0023C3859F
:10401000C384FFF7F8FF08BD90F83E30DBB2222BD7
:104020001ED18368B3F5805F06D0826A83B10368CE
:104030005B6803F07F031BE00369ABB9826A036826
:104040005B68C3F308031380836A0233836213E05F
:104050000369002BEBD108E0FFF7D4FF002046E016
:104060000220704700207047826A03685B68DBB2F9
:104070001370836A01338362C38D013B9BB2C38596
:10408000002BEFD100B583B00268D36823F0200382
:10409000D3600268D36823F48073D36002685369E5
:1040A00023F001035361202380F83E30036B012B82
:1040B000D2D100230363026802F10C0353E8003FEE
:1040C00023F010030C3242E800310029F3D10368D9
:1040D0001A6812F0100F06D0002201921A6801929D
:1040E0005B680193019B818DFEF7AEFB002003B05E
:1040F0005DF804FB10B582B0044602681368D1680D
:10410000506913F00F0F09D113F0200F0DD011F0EB
:10411000200F0AD02046FFF77FFF17E000F00100D4
:1041200001F4907C5CEA000C12D1206B01287FD056
:1041300013F0800F03D011F0800F40F0168113F0C0
:10414000400F03D011F0400F40F03C8102B010BD91
:1041500013F0010F06D011F4807F03D0226C42F0DF
:104160000102226413F0040F2FD058B1226C42F0E8
:104170000202226413F0020F00F02F81226C42F041
:104180000402226413F0080F07D001F0200202435A
:1041900003D0226C42F008022264226C002AD5D09F
:1041A00013F0200F02D011F0200F14D123685A69A8
:1041B000236C02F0400203F0080313430FD12046A2
:1041C000FFF721FF00232364C0E713F0020FD9D0CB
:1041D0000028D7D0D2E72046FFF71EFFE6E72046AB
:1041E000FFF77AFD23685B6913F0400F1CD022684B
:1041F00002F1140353E8003F23F04003143242E875
:1042000000310029F3D1A36B53B1764A1A65A06B34
:10421000FEF77AFC002899D0A06B036D984795E7CC
:104220002046FFF7F0FE91E72046FFF7ECFE8DE712
:1042300013F0100F3FF47CAF11F0100F3FF478AF84
:10424000002301931368019353680193019B536901
:1042500013F0400F4FD0A26B13685B689BB2002B2A
:104260003FF474AFA18D99427FF670AFE385D369B7
:10427000B3F5807F37D0226802F10C0353E8003F8A
:1042800023F480730C3242E800310029F3D1226814
:1042900002F1140353E8003F23F00103143242E813
:1042A00000310029F3D1226802F1140353E8003FE2
:1042B00023F04003143242E800310029F3D12023D7
:1042C00084F83E3000232363226802F10C0353E894
:1042D000003F23F010030C3242E800310029F3D1F3
:1042E000A06BFEF7C7FBE38DA18DC91A89B22046EA
:1042F000FEF7AAFA2AE7E38D9AB2E38D9BB2002B70
:104300003FF424AFA38D9B1A99B200293FF41EAF4E
:10431000226802F10C0353E8003F23F490730C323F
:1043200042E800300028F3D1226802F1140353E878
:10433000003F23F00103143242E800300028F3D19B
:10434000202384F83E3000232363226802F10C030B
:1043500053E8003F23F010030C3242E800300028FD
:10436000F3D12046FEF770FAF0E694F83D30DBB268
:10437000212B7FF4EBAEA368B3F5805F16D0236AE0
:10438000591C21621B785360E38C013B9BB2E38490
:10439000002B7FF4DBAE2268D36823F08003D36068
:1043A0002268D36843F04003D360CFE62369002B33
:1043B000E5D1236A1B88C3F308035360236A0233E1
:1043C0002362E1E7D36823F04003D360202384F81D
:1043D0003D302046FFF715FEB8E613F0080F7FF4D6
:1043E000D8AEDAE60940000881628285C2850023E2
:1043F0000364222280F83E2080F83C30036923B118
:104400000268D36843F48073D3600268536943F051
:10441000010353610268D36843F02003D360002096
:10442000704790F83E30DBB2202B29D110B582B016
:10443000044639B342B390F83C30012B27D0012316
:1044400080F83C300363FFF7CFFFF0B9236B012BFB
:1044500001D0012019E00023019323681A6801921A
:104460005B680193019B226802F10C0353E8003F53
:1044700043F010030C3242E800310029F3D104E08C
:1044800002207047012000E0012002B010BD022090
:10449000FBE70000014B1868704700BF2C000020AC
:1044A00070B50D4D0D4C641BA4100026A64209D119
:1044B0000B4D0C4C02F036FF641BA4100026A642E4
:1044C00005D170BD55F8043B98470136EEE755F825
:1044D000043B98470136F2E7547F0008547F0008F8
:1044E000547F0008587F00080A44914200F1FF33CE
:1044F00000D1704710B511F8014B03F8014F9142FC
:10450000F9D110BD02440346934200D1704703F82D
:10451000011BF9E72DE9FF4755EC104B002D0E4626
:1045200019462B46BBBF05F100431D4600232D2332
:104530000B700D9BDDF830A0914623F02008BCBF26
:1045400022461446B8F1460F05D0B8F1450F00D108
:104550000136022100E0032103AB019302AB00937B
:1045600045EC104B5346324600F01EFDB8F1470FA4
:10457000074602D119F0010F22D0B8F1460F07EB20
:10458000060910D13B78302B0AD1002200232046A7
:104590002946FCF7B1FA18B9C6F10106CAF800605D
:1045A000DAF8003099440022002320462946FCF71F
:1045B000A3FA08B1CDF80C903022039B4B4507D3EA
:1045C000039B0E9ADB1B3846136004B0BDE8F087EE
:1045D000591C03911A70F0E7F7B503460029B8BFDC
:1045E000494203F8022BB4BF2D222B220929427025
:1045F0002ADD0DF10704A4460A27A6460A4691FBC8
:10460000F7F607FB16153035632A04F1FF340EF870
:10461000015C3146F1DC3031AEF1020504F8011CD9
:10462000441C294661450AD30DF10902A2EB0E0292
:10463000654588BF00221344181A03B0F0BD11F875
:10464000012B04F8012FEDE7302330318370C17066
:10465000031DF1E72DE9F04F2DED028B8DB00C46D7
:10466000DDF8608016461F46054601F08BFAD0F84B
:1046700000A05046FBF7BEFD00230A932368059374
:10468000D8F8003094F818B0073323F0070303F18B
:104690000802C8F80020D3E90023C4E91223D4E9B2
:1046A000128929F000430793CDF8188008EE100A0C
:1046B0009F4BDDE906014FF0FF32FCF74FFA88BB54
:1046C000DDE906019A4B4FF0FF32FCF729FA48BBAF
:1046D0000022002340464946FCF718FA10B12D236A
:1046E00084F84330934B9448BBF1470F94BF9846EE
:1046F000804603232361059B23F0040222604FF0D0
:104700000009009733460BAA2146284600F0D8F945
:10471000013040F090804FF0FF300DB0BDEC028BC7
:10472000BDE8F08F42464B4640464946FCF716FA34
:1047300040B14B46002BBCBF2D2384F843307F484B
:104740007F4BD1E763680BF0DF0206925A1C3FD122
:1047500006236360059B616843F480620023039332
:104760000AABCDE901B309AB49EC108B0093226091
:104770000DF123032846FFF7CDFE069B0999472B31
:10478000804608D1C81C02DB6368994241DDABF169
:10479000020B5FFA8BFBBBF1650F20D801395A463B
:1047A00004F150000991FFF717FF0A9A1318012A24
:1047B0008146236102DC2268D20701D501332361DF
:1047C0009DF82330002B9CD02D2384F8433098E7AC
:1047D000069A472ABED1002BBCD10123B9E7BBF111
:1047E000660F18D1002963680BDD216113B92268B7
:1047F000D00702D501330B442361A1654FF00009B6
:10480000DEE713B92268D20701D50233F4E70123AA
:10481000F2E74FF0670B0A9B994205DB23682161A1
:10482000D807EAD54B1CE7E70029D4BFC1F1020243
:1048300001221344E0E723685A0507D4236942465E
:1048400031462846B84701302CD164E7BBF1650FEB
:1048500040F2E080D4E9120100220023FCF74CF979
:10486000002834D0374A012331462846B847013062
:104870003FF451AFDDE909239A4202DB2368D807F0
:1048800010D518EE103A524631462846B847013046
:104890003FF441AF4FF0000804F11A090A9B013BB5
:1048A000434509DC23689B0700F10581E0680B9B09
:1048B0009842B8BF184630E701234A463146284699
:1048C000B84701303FF427AF08F10108E6E7099B3C
:1048D000002B39DC1B4A012331462846B8470130FA
:1048E0003FF419AFDDE90923134302D12368D90747
:1048F000D8D518EE103A524631462846B84701300E
:104900003FF409AF4FF0000904F11A0A099B5B421A
:104910004B4501DC0A9B92E701235246314628466B
:10492000B84701303FF4F7AE09F10109EEE700BFE7
:10493000FFFFEF7F787B00087C7B0008847B00080A
:10494000807B0008887B00080A9AA36D9A42A8BF62
:104950001A46002A914637DC4FF0000B29EAE97924
:1049600004F11A02A36D0593A3EB09035B4533DC45
:10497000DDE909239A423BDB2368DA0738D40A9B36
:10498000059A09999A1AA3EB01099145A8BF914686
:10499000B9F1000F35DC4FF0000829EAE97904F19C
:1049A0001A0ADDE909239B1AA3EB090343457FF7A4
:1049B00079AF0123524631462846B84701303FF4CB
:1049C000AAAE08F10108ECE71346314642462846F4
:1049D000B8470130C0D19EE60123314628460592F2
:1049E000B84701303FF497AE059A0BF1010BB9E7D8
:1049F00018EE103A524631462846B8470130BED12B
:104A000089E6059A4B46424431462846B84701306C
:104A1000C1D180E60A9A012A01DCDB0738D50123DF
:104A2000424631462846B84701303FF474AE18EE8E
:104A3000103A524631462846B84701303FF46BAE33
:104A4000D4E9120100220023FCF756F8D8B90A9BDA
:104A500008F10102013B31462846B84701300ED12A
:104A600059E60123524631462846B84701303FF403
:104A700052AE08F101080A9B013B4345F1DC4B466D
:104A800004F15002DCE64FF0000804F11A0AF2E7E4
:104A900001234246DFE701234A4631462846B8470C
:104AA00001303FF438AE08F10108E3680B995B1A56
:104AB0004345F0DCFAE64FF0000804F11909F4E789
:104AC0002DE9F047164699468A680B69DDF8208083
:104AD0009342B8BF1346336091F8432007460C4613
:104AE0000AB1013333602368990642BF3368023349
:104AF0003360256815F0060506D104F1190AE3684C
:104B000032689B1AAB4226DC94F84320131E2268BD
:104B100018BF012392062BD404F1430249463846BC
:104B2000C04701301ED02368E568326803F00603F1
:104B3000042B08BFAD1AA36822690CBF25EAE575EE
:104B400000259342C4BF9B1AED1800261A34B542C3
:104B50001AD1002008E00123524649463846C04792
:104B6000013003D14FF0FF30BDE8F0870135C6E7D3
:104B7000E1185A1C302081F84300224494F8451073
:104B800082F843100233C7E70123224649463846DC
:104B9000C0470130E6D00136D9E700002DE9FF47D4
:104BA0000F7E0C9D782F914680460C469A4601F167
:104BB000430207D8622F0AD8002F00F0D880582F60
:104BC00000F0A38004F1420584F842703AE0A7F1B6
:104BD0006303152BF6D801A151F823F0354C0008DA
:104BE000494C0008C54B0008C54B0008C54B0008E0
:104BF000C54B0008494C0008C54B0008C54B0008D0
:104C0000C54B0008C54B0008554D0008794C0008FD
:104C1000374D0008C54B0008C54B0008774D00080C
:104C2000C54B0008794C0008C54B0008C54B00086F
:104C30003F4D00082B681A1D1B682A6004F14205CD
:104C400084F842300123A3E020682968060601F1B8
:104C500004030AD50E682B60002E03DA2D2376425A
:104C600084F843305E480A2319E00E682B6010F088
:104C7000400F18BF36B2EFE72B682068191D296076
:104C8000010601D51E6802E04606FBD51E88544881
:104C90006F2F0CBF08230A23002184F84310656896
:104CA000A560002DA2BF216821F0040121600EB98A
:104CB000002D4DD01546B6FBF3F103FB1167C75D20
:104CC00005F8017D3746BB420E46F4D9082B0BD1BF
:104CD0002368DE0708D5236961689942DEBF302367
:104CE00005F8013C05F1FF35521B2261CDF800A00B
:104CF0004B4603AA21464046FFF7E2FE01304CD165
:104D00004FF0FF3004B0BDE8F087354881F84570BA
:104D10002968236851F8046B29601D0614D5DF0744
:104D200044BF43F0200323601EB9236823F020030F
:104D300023601023B0E7236843F020032360782327
:104D4000284884F84530E3E7590648BFB6B2E6E79D
:104D50001546BBE72B6826686169181D2860350673
:104D60001B6801D5196002E07006FBD5198000238D
:104D700023611546BAE72B681A1D2A601D68626810
:104D800000212846FBF744FA08B1401B60606368C5
:104D90002361002384F84330A8E723692A46494663
:104DA0004046D0470130ABD023689B0713D4E0685E
:104DB000039B9842B8BF1846A4E7012332464946F0
:104DC0004046D04701309BD00135E36803995B1A18
:104DD000AB42F2DCEBE7002504F11906F5E700BF72
:104DE0008A7B00089B7B00080EB400B59CB01DAB0D
:104DF000029006906FF0004109480791049109491B
:104E000053F8042B05910068019302A901F09CFB63
:104E1000029B00221A701CB05DF804EB03B07047CF
:104E20002C0000200802FFFF70B503461E4613F851
:104E3000014B44B14A1E01E0A54204D012F8015FC3
:104E4000002DF9D1F2E7301A70BD30B5044625784F
:104E500023460134002DFAD1013A04D311F8014B55
:104E600003F8014B04B930BD002AF5D11A70F3E7FD
:104E700070B503461E4613F8014B3CB14A1E01E0D3
:104E8000A542F7D012F8015F002DF9D1301A70BD9C
:104E90002DE9F74F03690C69A3420746C0F28180F0
:104EA000013C01F1140800F1140505EB84030193A2
:104EB00058F8243055F8242001339A424FEA840BE5
:104EC00008EB8409B2FBF3F631D34FF0000E4046F5
:104ED000AC46F24650F8042B93B206FB03E34FEACC
:104EE000134E9BB2AAEB0303DCF800A0120C13FADA
:104EF0008AF306FB02E20093009B4FEA124E92B245
:104F0000C2EB1A4202EB2342BDF80030814543EA6E
:104F100002434CF8043B4FEA224ADBD255F80B30EF
:104F20002BB9019B043B9D421A462ED33C61384667
:104F300001F0B6F8002824DB013628464FF0000CBB
:104F400058F8042BD0F800E093B2ACEB0303120C3A
:104F500013FA8EF3C2EB1E4202EB23429BB243EAEA
:104F60000243C14540F8043B4FEA224CE8D255F8D1
:104F7000242005EB840322B9043B9D421A460AD340
:104F80003C61304603B0BDE8F08F1268043B002A54
:104F9000CCD1013CC7E71268043B002AF0D1013CA8
:104FA000EBE70020EEE700002DE9F04F2DED048B3C
:104FB00057EC106B93B0456ADDF88080069110EED7
:104FC00010AA044609920C93BB4675B9102000F054
:104FD000DDFD0246606220B9A74BEA21A74801F037
:104FE000C3FBC0E901550560C560636A196851B12A
:104FF0005A684A60012393408B60204600F00EFE01
:10500000636A00221A603B1EAABF002323F0004BF4
:10501000C8F800309A4BBCBF0122C8F8002033EA20
:105020000B031BD10C9A42F20F731360CBF31303E3
:10503000334300F09285219B63B9924B22E0924B5F
:1050400001930833219A1360019813B0BDEC048BCF
:10505000BDE8F08F8B4B01930333F3E7002200236D
:1050600050465946FBF748FD4BEC19AB804658B10A
:105070000C9A01231360219B002B00F06B85834861
:105080001860431E0193DFE74BEC10AB10AA11A987
:10509000204601F0ABF8CBF30A5508EE100A002DBC
:1050A00000F0848019EE903AC3F3130343F07F5766
:1050B000564647F44017A5F2FF35CDF83880744BBB
:1050C000002230463946FBF7F7F865A3D3E9002301
:1050D000FBF7AAFA64A3D3E90023FBF7EFF806462F
:1050E00028460F46FBF736FA61A3D3E90023FBF706
:1050F0009BFA02460B4630463946FBF7DFF8064678
:105100000F46FBF741FD0022009000233046394650
:10511000FBF7FCFC50B10098FBF71CFA32463B460B
:10512000FBF7EAFC10B9009B013B0093009B162B98
:105130005AD8009A574B03EBC203D3E9002351EC32
:10514000190BFBF7E3FC002850D0009B013B0093B8
:1051500000230B93109B5D1B6B1E059345BFC5F190
:1051600001030493002300234CBF05930493009B89
:10517000002B3DDB059B009A0A9213440593002304
:105180000793069B092B00F28980052BC4BF043BC3
:105190000693069BA3F10203CCBF00250125032B38
:1051A00000F28780DFE803F02D3A3859DDE910532B
:1051B0001D4405F23243202BC1BFC3F1400305F269
:1051C00012400BFA03F326FA00F0DABFC3F1200312
:1051D00006FA03F01843FBF7ADF901230646A1F1E7
:1051E000F877013D0E936AE70123B2E70B90B1E730
:1051F000049B009A9B1A04935342079300230A933B
:10520000BFE700230893099B002B55DC0123CDE960
:1052100002331A4609920CE00123F3E70023099AAE
:105220000893009B134402930133012B0393B8BFEF
:105230000123606A00224260042202F114069E42A9
:1052400041683DD9204600F0A9FC019000283BD1DF
:10525000114B02464FF4D571C0E60123DFE700BFD2
:1052600061436F63A787D23FB3C8608B288AC63F6C
:10527000FB799F501344D33FB97B0008D07B0008D3
:105280000000F07FB57B0008AC7B0008897B00083C
:105290000000F83FC07C00082B7C0008012500239B
:1052A000069308954FF0FF33CDE902330022122315
:1052B000B0E701230893F5E7099BCDE90233B8E78E
:1052C000013141605200B8E7636A019A1A60039B9A
:1052D0000E2B00F29D80002D00F09A80009B002B89
:1052E00032DDB74A03F00F0302EBC303D3E90089B1
:1052F000009BD8054FEA231716D5B24B51EC190B7A
:10530000D3E90823FBF7BAFA07F00F0782468B466A
:105310000325AC4E57B942464B4650465946FBF71B
:10532000ADFA82468B4628E00225F2E7F90708D558
:1053300040464946D6E90023FBF776F90135804619
:1053400089467F100836E5E700F09B80009B9D4F63
:105350005E429B4B06F00F0203EBC203D3E900232E
:1053600051EC190BFBF760F9361182468B4600238E
:105370000225002E7AD1002BD3D10B9B002B00F0FD
:105380008280914B002250465946FBF7BFFB002814
:1053900079D0039B002B76D0029B002B36DD009B3F
:1053A000504659465F1E0022884BFBF73DF9029E8E
:1053B00082468B4601352846FBF7CCF852465B46C1
:1053C000FBF732F9824B0022FAF778FFD046D94634
:1053D0008246A1F1507B002E58D17E4B00224046E0
:1053E0004946FAF769FF52465B4680468946FBF715
:1053F000ABFB002840F0958252460BF1004340463B
:105400004946FBF783FB002840F089825BEC19AB2F
:10541000119B002BC0F24881009A0E2A00F34481B0
:10542000674B03EBC203D3E90089099B002B80F291
:10543000D580039B002B00F3D18040F06F82654B39
:10544000002240464946FBF7EFF852465B46FBF721
:1054500071FB039E3746002840F04582019D3123B1
:1054600005F8013B009B0133009340E2F20705D5AC
:10547000D7E90023FBF7D8F8013501237610083768
:1054800077E7022579E7009F039E94E701994C4B4B
:1054900031440D91089903EBC60353E90223002917
:1054A00043D04D490020FBF7E9F952465B46FAF735
:1054B00003FF019D82468B4649464046FBF764FB4D
:1054C0000646FBF747F802460B4640464946FAF7C0
:1054D000F3FE303605F8016B52465B46804689463E
:1054E000FBF714FB002863D142464B4636490020A7
:1054F000FAF7E2FE52465B46FBF708FB002840F055
:10550000B5800D9B9D4281D0304B002250465946BC
:10551000FBF78AF82D4B82468B46404649460022CF
:10552000FBF782F880468946C6E750465946FBF7A6
:105530007BF80D9B019D0F9382468B464946404662
:10554000FBF722FB0646FBF705F8303602460B4612
:1055500040464946FAF7B0FE05F8016B0D9B9D42A7
:10556000804689464FF0000224D11B4B50465946D5
:10557000FAF7A4FE02460B4640464946FBF7E4FA1A
:10558000002873D152465B4613490020FAF794FE77
:1055900002460B4640464946FBF7B8FA00283FF45E
:1055A00035AF0F9D6B1E0F9315F8013C302BF8D0D3
:1055B000009749E0054BFBF737F880468946BDE781
:1055C000C07C0008987C00080000F03F00002440E8
:1055D00000001C40000014400000E03F019D5646C2
:1055E0005F4642464B4630463946FBF747F9FBF7E4
:1055F000CBFA8246FAF7AEFF42464B46FBF714F869
:1056000002460B46304639460AF13006FAF754FE98
:1056100005F8016B019E039FAE1BB74202460B4685
:1056200035D1FAF74BFE42464B4606460F46FBF78E
:105630008BFAD0B942464B4630463946FBF75CFA06
:1056400010B11AF0010F10D1204618EE101A00F018
:10565000E5FA002300982B700C9B01301860219B09
:10566000002B3FF4F1AC1D60EEE4009F2B461D467D
:1056700013F8012D392A06D1019A9A42F7D10199DE
:10568000302201370A701A7801321A7090E7A64B5F
:105690000022FAF7C9FF0022002306460F46FBF757
:1056A0002BFA00289DD0CFE7089A002A00F0D78077
:1056B000069A012A00F3BA800E9A002A00F0B280FE
:1056C00003F23343079E049D049A1A440492059AF8
:1056D00001211A442046059200F058FB0746002D90
:1056E0000CDD059B002B09DDAB42049AA8BF2B46BD
:1056F000D21A0492059AED1AD31A0593079B1BB38D
:10570000089B002B00F0AF80002E13DD3946324697
:10571000204600F0FBFB18EE102A01460746204603
:1057200000F04AFB18EE101A8046204600F076FA88
:1057300008EE108A079B9A1B06D018EE101A204616
:1057400000F0E4FB08EE100A0121204600F01EFBE9
:105750000A9B002B064640F388801A4601462046E5
:1057600000F0D4FB069B012B064640F381804FF0EE
:105770000008336906EB8303186900F0B7FAC0F13B
:105780002000059B184410F01F0000F09280C0F12B
:105790002003042B40F38A80C0F11C00049B0344C7
:1057A0000493059B034405440593049B002B07DDEC
:1057B00018EE101A1A46204600F002FC08EE100AF5
:1057C000059B002B05DD31461A46204600F0F8FB0C
:1057D00006460B9B002B6ED018EE100A314600F0E7
:1057E0005FFC002867DA009B013B18EE101A00935B
:1057F0000A220023204600F033FA089B08EE100A24
:10580000002B00F0B181002339460A22204600F027
:1058100027FA029B002B074600F38E80069B022B83
:1058200051DC89E0109BC3F136034BE7039B5E1EFE
:10583000079BB342BFBF079B0796F21A0A9BB6BFEE
:105840009B189E1B0A93039BB8BF0026002BB7BF73
:10585000DDE90323DDE903359D1A002334E7079EC4
:10586000049D089F3BE7079A67E7069B012B18DC1E
:10587000BAF1000F15D1CBF3130393B92BF000430A
:105880001B0D1B0583B1049B01330493059B01335E
:1058900005934FF001080A9B002B7FF46AAF0120AB
:1058A0006FE74FF00008F6E79846F4E73FF47DAF66
:1058B00018461C3072E7039B002B37DC069B022B3B
:1058C00034DD039B0293029B6BB9314605222046CF
:1058D00000F0C6F90146064618EE100A00F0E0FB9B
:1058E00000283FF7BBAD099B019DDB4300934FF0C0
:1058F00000083146204600F091F9002F3FF4A4AE95
:10590000B8F1000F05D0B84503D04146204600F05D
:1059100085F93946204600F081F995E6002637469C
:10592000E1E70097374699E500002440089B002BEB
:1059300000F0CA80039B0293002D05DD39462A46FC
:10594000204600F03DFB0746B8F1000F5BD07968B8
:10595000204600F023F9054628B9874B024640F25D
:10596000EA21FFF73BBB3A690232920007F10C01D2
:105970000C30FEF7B9FD01222946204600F020FB3D
:10598000019B03F10109DDE90123134405930AF0AA
:105990000103B84604930746314618EE100AFFF794
:1059A00077FA4146029000F1300A18EE100A00F032
:1059B00077FB3A4603903146204600F08DFBC268E3
:1059C00009F1FF3B054602BB014618EE100A00F044
:1059D00067FB024629462046079200F01FF9DDE9E1
:1059E000063243EA0201049B0B434D460FD1BAF144
:1059F000390F2AD0039B002B02DD029B03F1310AF1
:105A00008BF800A075E73846BAE70122E2E7039B6E
:105A1000002B04DB06990B4304990B4322D1002A87
:105A2000EEDD18EE101A0122204600F0C9FA3146C8
:105A300008EE100A00F034FB002803DCE0D11AF075
:105A4000010FDDD0BAF1390FD7D139238BF80030EF
:105A50002B461D46013B15F8012C392A71D0013225
:105A60001A7046E7002A07DDBAF1390FEDD00AF1C6
:105A700001038BF800303CE7059B09F801AC994520
:105A800047D018EE101A00230A22204600F0E8F84A
:105A9000B84508EE100A4FF000034FF00A024146E5
:105AA000204606D100F0DCF88046074609F10109DE
:105AB00072E700F0D5F83946804600230A222046D6
:105AC00000F0CEF80746F1E7039B0293019D18EE24
:105AD000100A3146FFF7DCF900F1300A019B05F8A6
